{
  "contractName": "BlockFoodDemo",
  "abi": [
    {
      "constant": true,
      "inputs": [
        {
          "name": "",
          "type": "uint256"
        }
      ],
      "name": "ordersDetails",
      "outputs": [
        {
          "name": "id",
          "type": "uint256"
        },
        {
          "name": "restaurantPayment",
          "type": "uint256"
        },
        {
          "name": "courierPayment",
          "type": "uint256"
        }
      ],
      "payable": false,
      "stateMutability": "view",
      "type": "function"
    },
    {
      "constant": true,
      "inputs": [
        {
          "name": "",
          "type": "uint256"
        }
      ],
      "name": "orders",
      "outputs": [
        {
          "name": "id",
          "type": "uint256"
        },
        {
          "name": "customer",
          "type": "address"
        },
        {
          "name": "restaurant",
          "type": "address"
        },
        {
          "name": "courier",
          "type": "address"
        },
        {
          "name": "status",
          "type": "uint8"
        }
      ],
      "payable": false,
      "stateMutability": "view",
      "type": "function"
    },
    {
      "constant": true,
      "inputs": [
        {
          "name": "",
          "type": "uint256"
        }
      ],
      "name": "ordersIds",
      "outputs": [
        {
          "name": "",
          "type": "uint256"
        }
      ],
      "payable": false,
      "stateMutability": "view",
      "type": "function"
    },
    {
      "inputs": [],
      "payable": false,
      "stateMutability": "nonpayable",
      "type": "constructor"
    },
    {
      "anonymous": false,
      "inputs": [
        {
          "indexed": false,
          "name": "orderId",
          "type": "uint256"
        },
        {
          "indexed": false,
          "name": "status",
          "type": "uint8"
        }
      ],
      "name": "OrderUpdate",
      "type": "event"
    },
    {
      "constant": false,
      "inputs": [
        {
          "name": "orderId",
          "type": "uint256"
        }
      ],
      "name": "newDemo",
      "outputs": [],
      "payable": false,
      "stateMutability": "nonpayable",
      "type": "function"
    },
    {
      "constant": false,
      "inputs": [
        {
          "name": "orderId",
          "type": "uint256"
        },
        {
          "name": "restaurant",
          "type": "address"
        },
        {
          "name": "restaurantPayment",
          "type": "uint256"
        },
        {
          "name": "courierPayment",
          "type": "uint256"
        }
      ],
      "name": "submit",
      "outputs": [],
      "payable": true,
      "stateMutability": "payable",
      "type": "function"
    },
    {
      "constant": false,
      "inputs": [
        {
          "name": "orderId",
          "type": "uint256"
        }
      ],
      "name": "accept",
      "outputs": [],
      "payable": false,
      "stateMutability": "nonpayable",
      "type": "function"
    },
    {
      "constant": false,
      "inputs": [
        {
          "name": "orderId",
          "type": "uint256"
        }
      ],
      "name": "ready",
      "outputs": [],
      "payable": false,
      "stateMutability": "nonpayable",
      "type": "function"
    },
    {
      "constant": false,
      "inputs": [
        {
          "name": "orderId",
          "type": "uint256"
        }
      ],
      "name": "picking",
      "outputs": [],
      "payable": false,
      "stateMutability": "nonpayable",
      "type": "function"
    },
    {
      "constant": false,
      "inputs": [
        {
          "name": "orderId",
          "type": "uint256"
        }
      ],
      "name": "delivering",
      "outputs": [],
      "payable": false,
      "stateMutability": "nonpayable",
      "type": "function"
    },
    {
      "constant": false,
      "inputs": [
        {
          "name": "orderId",
          "type": "uint256"
        }
      ],
      "name": "done",
      "outputs": [],
      "payable": false,
      "stateMutability": "nonpayable",
      "type": "function"
    }
  ],
  "bytecode": "0x608060405234801561001057600080fd5b5061111b806100206000396000f3006080604052600436106100a4576000357c0100000000000000000000000000000000000000000000000000000000900463ffffffff1680630a6f91c4146100a957806319b05f49146100d65780632385e0461461010357806335fc6da31461013057806358a743c71461015d578063734140071461018a578063738e257c146101de578063a85c38ef1461022d578063e09b86741461031c578063f0bd2b9e1461035d575b600080fd5b3480156100b557600080fd5b506100d46004803603810190808035906020019092919050505061038a565b005b3480156100e257600080fd5b50610101600480360381019080803590602001909291905050506104b4565b005b34801561010f57600080fd5b5061012e600480360381019080803590602001909291905050506105fd565b005b34801561013c57600080fd5b5061015b600480360381019080803590602001909291905050506108b5565b005b34801561016957600080fd5b50610188600480360381019080803590602001909291905050506109fe565b005b6101dc60048036038101908080359060200190929190803573ffffffffffffffffffffffffffffffffffffffff1690602001909291908035906020019092919080359060200190929190505050610cb0565b005b3480156101ea57600080fd5b5061020960048036038101908080359060200190929190505050610eb6565b60405180848152602001838152602001828152602001935050505060405180910390f35b34801561023957600080fd5b5061025860048036038101908080359060200190929190505050610ee0565b604051808681526020018573ffffffffffffffffffffffffffffffffffffffff1673ffffffffffffffffffffffffffffffffffffffff1681526020018473ffffffffffffffffffffffffffffffffffffffff1673ffffffffffffffffffffffffffffffffffffffff1681526020018373ffffffffffffffffffffffffffffffffffffffff1673ffffffffffffffffffffffffffffffffffffffff16815260200182600681111561030457fe5b60ff1681526020019550505050505060405180910390f35b34801561032857600080fd5b5061034760048036038101908080359060200190929190505050610f83565b6040518082815260200191505060405180910390f35b34801561036957600080fd5b5061038860048036038101908080359060200190929190505050610fa6565b005b80600380600681111561039957fe5b6001600084815260200190815260200160002060030160149054906101000a900460ff1660068111156103c857fe5b1415156103d457600080fd5b336001600085815260200190815260200160002060030160006101000a81548173ffffffffffffffffffffffffffffffffffffffff021916908373ffffffffffffffffffffffffffffffffffffffff16021790555060046001600085815260200190815260200160002060030160146101000a81548160ff0219169083600681111561045c57fe5b02179055507f6f82c7805bdbbdb8452159c69cc66755731cac63aec40113c6b2d1ea79b4e4d38360046040518083815260200182600681111561049b57fe5b60ff1681526020019250505060405180910390a1505050565b80338073ffffffffffffffffffffffffffffffffffffffff166001600084815260200190815260200160002060020160009054906101000a900473ffffffffffffffffffffffffffffffffffffffff1673ffffffffffffffffffffffffffffffffffffffff1614151561052657600080fd5b82600180600681111561053557fe5b6001600084815260200190815260200160002060030160149054906101000a900460ff16600681111561056457fe5b14151561057057600080fd5b60026001600087815260200190815260200160002060030160146101000a81548160ff021916908360068111156105a357fe5b02179055507f6f82c7805bdbbdb8452159c69cc66755731cac63aec40113c6b2d1ea79b4e4d3856002604051808381526020018260068111156105e257fe5b60ff1681526020019250505060405180910390a15050505050565b806000600681111561060b57fe5b6001600083815260200190815260200160002060030160149054906101000a900460ff16600681111561063a57fe5b14151561064657600080fd5b60006001600083815260200190815260200160002060010160009054906101000a900473ffffffffffffffffffffffffffffffffffffffff1673ffffffffffffffffffffffffffffffffffffffff161415156106a157600080fd5b60a0604051908101604052808381526020013373ffffffffffffffffffffffffffffffffffffffff168152602001600073ffffffffffffffffffffffffffffffffffffffff168152602001600073ffffffffffffffffffffffffffffffffffffffff1681526020016000600681111561071657fe5b815250600160008481526020019081526020016000206000820151816000015560208201518160010160006101000a81548173ffffffffffffffffffffffffffffffffffffffff021916908373ffffffffffffffffffffffffffffffffffffffff16021790555060408201518160020160006101000a81548173ffffffffffffffffffffffffffffffffffffffff021916908373ffffffffffffffffffffffffffffffffffffffff16021790555060608201518160030160006101000a81548173ffffffffffffffffffffffffffffffffffffffff021916908373ffffffffffffffffffffffffffffffffffffffff16021790555060808201518160030160146101000a81548160ff0219169083600681111561082f57fe5b021790555090505060008290806001815401808255809150509060018203906000526020600020016000909192909190915055507f6f82c7805bdbbdb8452159c69cc66755731cac63aec40113c6b2d1ea79b4e4d38260006040518083815260200182600681111561089d57fe5b60ff1681526020019250505060405180910390a15050565b80338073ffffffffffffffffffffffffffffffffffffffff166001600084815260200190815260200160002060030160009054906101000a900473ffffffffffffffffffffffffffffffffffffffff1673ffffffffffffffffffffffffffffffffffffffff1614151561092757600080fd5b82600480600681111561093657fe5b6001600084815260200190815260200160002060030160149054906101000a900460ff16600681111561096557fe5b14151561097157600080fd5b60056001600087815260200190815260200160002060030160146101000a81548160ff021916908360068111156109a457fe5b02179055507f6f82c7805bdbbdb8452159c69cc66755731cac63aec40113c6b2d1ea79b4e4d3856005604051808381526020018260068111156109e357fe5b60ff1681526020019250505060405180910390a15050505050565b60008082338073ffffffffffffffffffffffffffffffffffffffff166001600084815260200190815260200160002060030160009054906101000a900473ffffffffffffffffffffffffffffffffffffffff1673ffffffffffffffffffffffffffffffffffffffff16141515610a7357600080fd5b846005806006811115610a8257fe5b6001600084815260200190815260200160002060030160149054906101000a900460ff166006811115610ab157fe5b141515610abd57600080fd5b60066001600089815260200190815260200160002060030160146101000a81548160ff02191690836006811115610af057fe5b02179055507f6f82c7805bdbbdb8452159c69cc66755731cac63aec40113c6b2d1ea79b4e4d387600660405180838152602001826006811115610b2f57fe5b60ff1681526020019250505060405180910390a1600260008881526020019081526020016000206001015495506002600088815260200190815260200160002060020154945060006002600089815260200190815260200160002060010181905550600060026000898152602001908152602001600020600201819055506001600088815260200190815260200160002060020160009054906101000a900473ffffffffffffffffffffffffffffffffffffffff1673ffffffffffffffffffffffffffffffffffffffff166108fc879081150290604051600060405180830381858888f19350505050158015610c29573d6000803e3d6000fd5b506001600088815260200190815260200160002060030160009054906101000a900473ffffffffffffffffffffffffffffffffffffffff1673ffffffffffffffffffffffffffffffffffffffff166108fc869081150290604051600060405180830381858888f19350505050158015610ca6573d6000803e3d6000fd5b5050505050505050565b83338073ffffffffffffffffffffffffffffffffffffffff166001600084815260200190815260200160002060010160009054906101000a900473ffffffffffffffffffffffffffffffffffffffff1673ffffffffffffffffffffffffffffffffffffffff16141515610d2257600080fd5b34848480820183141515610d3557600080fd5b886000806006811115610d4457fe5b6001600084815260200190815260200160002060030160149054906101000a900460ff166006811115610d7357fe5b141515610d7f57600080fd5b89600160008d815260200190815260200160002060020160006101000a81548173ffffffffffffffffffffffffffffffffffffffff021916908373ffffffffffffffffffffffffffffffffffffffff16021790555060018060008d815260200190815260200160002060030160146101000a81548160ff02191690836006811115610e0657fe5b02179055506060604051908101604052808c81526020018a815260200189815250600260008d81526020019081526020016000206000820151816000015560208201518160010155604082015181600201559050507f6f82c7805bdbbdb8452159c69cc66755731cac63aec40113c6b2d1ea79b4e4d38b600160405180838152602001826006811115610e9557fe5b60ff1681526020019250505060405180910390a15050505050505050505050565b60026020528060005260406000206000915090508060000154908060010154908060020154905083565b60016020528060005260406000206000915090508060000154908060010160009054906101000a900473ffffffffffffffffffffffffffffffffffffffff16908060020160009054906101000a900473ffffffffffffffffffffffffffffffffffffffff16908060030160009054906101000a900473ffffffffffffffffffffffffffffffffffffffff16908060030160149054906101000a900460ff16905085565b600081815481101515610f9257fe5b906000526020600020016000915090505481565b80338073ffffffffffffffffffffffffffffffffffffffff166001600084815260200190815260200160002060020160009054906101000a900473ffffffffffffffffffffffffffffffffffffffff1673ffffffffffffffffffffffffffffffffffffffff1614151561101857600080fd5b82600280600681111561102757fe5b6001600084815260200190815260200160002060030160149054906101000a900460ff16600681111561105657fe5b14151561106257600080fd5b60036001600087815260200190815260200160002060030160146101000a81548160ff0219169083600681111561109557fe5b02179055507f6f82c7805bdbbdb8452159c69cc66755731cac63aec40113c6b2d1ea79b4e4d3856003604051808381526020018260068111156110d457fe5b60ff1681526020019250505060405180910390a150505050505600a165627a7a723058207f30644fc254f6735d86a657b1283ac0c7091e87f824809b682659495987f0b20029",
  "source": "pragma solidity ^0.4.0;\n\ncontract BlockFoodDemo {\n\n    enum OrderStatus {Unset, Submitted, Accepted, Ready, Picking, Delivering, Done}\n\n    struct Order {\n        uint id;\n        address customer;\n        address restaurant;\n        address courier;\n        OrderStatus status;\n    }\n\n    struct OrderDetails {\n        uint id;\n        uint restaurantPayment;\n        uint courierPayment;\n    }\n\n    uint[] public ordersIds;\n    mapping(uint => Order) public orders;\n    mapping(uint => OrderDetails) public ordersDetails;\n\n    event OrderUpdate(uint orderId, OrderStatus status);\n\n    modifier onlyNewDemo(uint orderId) {\n        require(orders[orderId].status == OrderStatus.Unset);\n        require(orders[orderId].customer == 0x0);\n        _;\n    }\n\n    modifier onlyCustomer(uint orderId, address customer) {\n        require(orders[orderId].customer == customer);\n        _;\n    }\n    modifier onlyRestaurant(uint orderId, address restaurant) {\n        require(orders[orderId].restaurant == restaurant);\n        _;\n    }\n    modifier onlyCourier(uint orderId, address courier) {\n        require(orders[orderId].courier == courier);\n        _;\n    }\n\n    modifier onlyValidDetails(uint total, uint restaurantPayment, uint courierPayment) {\n        require(total == restaurantPayment + courierPayment);\n        _;\n    }\n\n    modifier checkOrderStatus(uint orderId, OrderStatus status) {\n        require(orders[orderId].status == status);\n        _;\n    }\n\n    function BlockFoodDemo() public {\n    }\n\n    function newDemo(\n        uint orderId\n    )\n    public onlyNewDemo(orderId)\n    {\n        orders[orderId] = Order(orderId, msg.sender, 0x0, 0x0, OrderStatus.Unset);\n        ordersIds.push(orderId);\n        OrderUpdate(orderId, OrderStatus.Unset);\n    }\n\n    function submit(\n        uint orderId,\n        address restaurant,\n        uint restaurantPayment,\n        uint courierPayment\n    )\n    public\n    payable\n    onlyCustomer(orderId, msg.sender)\n    onlyValidDetails(msg.value, restaurantPayment, courierPayment)\n    checkOrderStatus(orderId, OrderStatus.Unset)\n    {\n        orders[orderId].restaurant = restaurant;\n        orders[orderId].status = OrderStatus.Submitted;\n        ordersDetails[orderId] = OrderDetails(orderId, restaurantPayment, courierPayment);\n        OrderUpdate(orderId, OrderStatus.Submitted);\n    }\n\n    function accept(\n        uint orderId\n    )\n    public\n    onlyRestaurant(orderId, msg.sender)\n    checkOrderStatus(orderId, OrderStatus.Submitted)\n    {\n        orders[orderId].status = OrderStatus.Accepted;\n        OrderUpdate(orderId, OrderStatus.Accepted);\n    }\n\n    function ready(\n        uint orderId\n    )\n    public\n    onlyRestaurant(orderId, msg.sender)\n    checkOrderStatus(orderId, OrderStatus.Accepted)\n    {\n        orders[orderId].status = OrderStatus.Ready;\n        OrderUpdate(orderId, OrderStatus.Ready);\n    }\n\n    function picking(\n        uint orderId\n    )\n    public\n    checkOrderStatus(orderId, OrderStatus.Ready)\n    {\n        orders[orderId].courier = msg.sender;\n        orders[orderId].status = OrderStatus.Picking;\n        OrderUpdate(orderId, OrderStatus.Picking);\n    }\n\n    function delivering(\n        uint orderId\n    )\n    public\n    onlyCourier(orderId, msg.sender)\n    checkOrderStatus(orderId, OrderStatus.Picking)\n    {\n        orders[orderId].status = OrderStatus.Delivering;\n        OrderUpdate(orderId, OrderStatus.Delivering);\n    }\n\n    function done(\n        uint orderId\n    )\n    public\n    onlyCourier(orderId, msg.sender)\n    checkOrderStatus(orderId, OrderStatus.Delivering)\n    {\n        orders[orderId].status = OrderStatus.Done;\n        OrderUpdate(orderId, OrderStatus.Done);\n\n        uint restaurantPayment = ordersDetails[orderId].restaurantPayment;\n        uint courierPayment = ordersDetails[orderId].courierPayment;\n\n        ordersDetails[orderId].restaurantPayment = 0;\n        ordersDetails[orderId].courierPayment = 0;\n\n        orders[orderId].restaurant.transfer(restaurantPayment);\n        orders[orderId].courier.transfer(courierPayment);\n    }\n}\n",
  "sourcePath": "/home/larnicol/Documents/blockfood-demo/src/dapp/contracts/BlockFoodDemo.sol",
  "compiler": {
    "name": "solc",
    "version": "0.4.23+commit.124ca40d.Emscripten.clang"
  },
  "schemaVersion": "2.0.0",
  "updatedAt": "2018-05-25T15:35:58.328Z"
}